{
  "_format": "hh-sol-artifact-1",
  "contractName": "ChainBattles",
  "sourceName": "contracts/ChainBattled.sol",
  "abi": [
    {
      "inputs": [],
      "stateMutability": "nonpayable",
      "type": "constructor"
    },
    {
      "anonymous": false,
      "inputs": [
        {
          "indexed": true,
          "internalType": "address",
          "name": "owner",
          "type": "address"
        },
        {
          "indexed": true,
          "internalType": "address",
          "name": "approved",
          "type": "address"
        },
        {
          "indexed": true,
          "internalType": "uint256",
          "name": "tokenId",
          "type": "uint256"
        }
      ],
      "name": "Approval",
      "type": "event"
    },
    {
      "anonymous": false,
      "inputs": [
        {
          "indexed": true,
          "internalType": "address",
          "name": "owner",
          "type": "address"
        },
        {
          "indexed": true,
          "internalType": "address",
          "name": "operator",
          "type": "address"
        },
        {
          "indexed": false,
          "internalType": "bool",
          "name": "approved",
          "type": "bool"
        }
      ],
      "name": "ApprovalForAll",
      "type": "event"
    },
    {
      "anonymous": false,
      "inputs": [
        {
          "indexed": true,
          "internalType": "address",
          "name": "from",
          "type": "address"
        },
        {
          "indexed": true,
          "internalType": "address",
          "name": "to",
          "type": "address"
        },
        {
          "indexed": true,
          "internalType": "uint256",
          "name": "tokenId",
          "type": "uint256"
        }
      ],
      "name": "Transfer",
      "type": "event"
    },
    {
      "inputs": [
        {
          "internalType": "address",
          "name": "to",
          "type": "address"
        },
        {
          "internalType": "uint256",
          "name": "tokenId",
          "type": "uint256"
        }
      ],
      "name": "approve",
      "outputs": [],
      "stateMutability": "nonpayable",
      "type": "function"
    },
    {
      "inputs": [
        {
          "internalType": "address",
          "name": "owner",
          "type": "address"
        }
      ],
      "name": "balanceOf",
      "outputs": [
        {
          "internalType": "uint256",
          "name": "",
          "type": "uint256"
        }
      ],
      "stateMutability": "view",
      "type": "function"
    },
    {
      "inputs": [
        {
          "internalType": "uint256",
          "name": "tokenId",
          "type": "uint256"
        }
      ],
      "name": "generateCharacter",
      "outputs": [
        {
          "internalType": "string",
          "name": "",
          "type": "string"
        }
      ],
      "stateMutability": "nonpayable",
      "type": "function"
    },
    {
      "inputs": [
        {
          "internalType": "uint256",
          "name": "tokenId",
          "type": "uint256"
        }
      ],
      "name": "getApproved",
      "outputs": [
        {
          "internalType": "address",
          "name": "",
          "type": "address"
        }
      ],
      "stateMutability": "view",
      "type": "function"
    },
    {
      "inputs": [
        {
          "internalType": "uint256",
          "name": "tokenId",
          "type": "uint256"
        }
      ],
      "name": "getLevels",
      "outputs": [
        {
          "internalType": "string",
          "name": "",
          "type": "string"
        }
      ],
      "stateMutability": "view",
      "type": "function"
    },
    {
      "inputs": [
        {
          "internalType": "uint256",
          "name": "tokenId",
          "type": "uint256"
        }
      ],
      "name": "getLifes",
      "outputs": [
        {
          "internalType": "string",
          "name": "",
          "type": "string"
        }
      ],
      "stateMutability": "view",
      "type": "function"
    },
    {
      "inputs": [
        {
          "internalType": "uint256",
          "name": "tokenId",
          "type": "uint256"
        }
      ],
      "name": "getPowers",
      "outputs": [
        {
          "internalType": "string",
          "name": "",
          "type": "string"
        }
      ],
      "stateMutability": "view",
      "type": "function"
    },
    {
      "inputs": [
        {
          "internalType": "uint256",
          "name": "tokenId",
          "type": "uint256"
        }
      ],
      "name": "getSpeeds",
      "outputs": [
        {
          "internalType": "string",
          "name": "",
          "type": "string"
        }
      ],
      "stateMutability": "view",
      "type": "function"
    },
    {
      "inputs": [
        {
          "internalType": "uint256",
          "name": "tokenId",
          "type": "uint256"
        }
      ],
      "name": "getTokenURI",
      "outputs": [
        {
          "internalType": "string",
          "name": "",
          "type": "string"
        }
      ],
      "stateMutability": "nonpayable",
      "type": "function"
    },
    {
      "inputs": [
        {
          "internalType": "address",
          "name": "owner",
          "type": "address"
        },
        {
          "internalType": "address",
          "name": "operator",
          "type": "address"
        }
      ],
      "name": "isApprovedForAll",
      "outputs": [
        {
          "internalType": "bool",
          "name": "",
          "type": "bool"
        }
      ],
      "stateMutability": "view",
      "type": "function"
    },
    {
      "inputs": [],
      "name": "mint",
      "outputs": [],
      "stateMutability": "nonpayable",
      "type": "function"
    },
    {
      "inputs": [],
      "name": "name",
      "outputs": [
        {
          "internalType": "string",
          "name": "",
          "type": "string"
        }
      ],
      "stateMutability": "view",
      "type": "function"
    },
    {
      "inputs": [
        {
          "internalType": "uint256",
          "name": "tokenId",
          "type": "uint256"
        }
      ],
      "name": "ownerOf",
      "outputs": [
        {
          "internalType": "address",
          "name": "",
          "type": "address"
        }
      ],
      "stateMutability": "view",
      "type": "function"
    },
    {
      "inputs": [
        {
          "internalType": "address",
          "name": "from",
          "type": "address"
        },
        {
          "internalType": "address",
          "name": "to",
          "type": "address"
        },
        {
          "internalType": "uint256",
          "name": "tokenId",
          "type": "uint256"
        }
      ],
      "name": "safeTransferFrom",
      "outputs": [],
      "stateMutability": "nonpayable",
      "type": "function"
    },
    {
      "inputs": [
        {
          "internalType": "address",
          "name": "from",
          "type": "address"
        },
        {
          "internalType": "address",
          "name": "to",
          "type": "address"
        },
        {
          "internalType": "uint256",
          "name": "tokenId",
          "type": "uint256"
        },
        {
          "internalType": "bytes",
          "name": "data",
          "type": "bytes"
        }
      ],
      "name": "safeTransferFrom",
      "outputs": [],
      "stateMutability": "nonpayable",
      "type": "function"
    },
    {
      "inputs": [
        {
          "internalType": "address",
          "name": "operator",
          "type": "address"
        },
        {
          "internalType": "bool",
          "name": "approved",
          "type": "bool"
        }
      ],
      "name": "setApprovalForAll",
      "outputs": [],
      "stateMutability": "nonpayable",
      "type": "function"
    },
    {
      "inputs": [
        {
          "internalType": "bytes4",
          "name": "interfaceId",
          "type": "bytes4"
        }
      ],
      "name": "supportsInterface",
      "outputs": [
        {
          "internalType": "bool",
          "name": "",
          "type": "bool"
        }
      ],
      "stateMutability": "view",
      "type": "function"
    },
    {
      "inputs": [],
      "name": "symbol",
      "outputs": [
        {
          "internalType": "string",
          "name": "",
          "type": "string"
        }
      ],
      "stateMutability": "view",
      "type": "function"
    },
    {
      "inputs": [
        {
          "internalType": "uint256",
          "name": "",
          "type": "uint256"
        }
      ],
      "name": "tokenIdToLevels",
      "outputs": [
        {
          "internalType": "uint256",
          "name": "",
          "type": "uint256"
        }
      ],
      "stateMutability": "view",
      "type": "function"
    },
    {
      "inputs": [
        {
          "internalType": "uint256",
          "name": "",
          "type": "uint256"
        }
      ],
      "name": "tokenIdToPowers",
      "outputs": [
        {
          "internalType": "uint256",
          "name": "",
          "type": "uint256"
        }
      ],
      "stateMutability": "view",
      "type": "function"
    },
    {
      "inputs": [
        {
          "internalType": "uint256",
          "name": "",
          "type": "uint256"
        }
      ],
      "name": "tokenIdToSpeeds",
      "outputs": [
        {
          "internalType": "uint256",
          "name": "",
          "type": "uint256"
        }
      ],
      "stateMutability": "view",
      "type": "function"
    },
    {
      "inputs": [
        {
          "internalType": "uint256",
          "name": "",
          "type": "uint256"
        }
      ],
      "name": "tokenIdTolifes",
      "outputs": [
        {
          "internalType": "uint256",
          "name": "",
          "type": "uint256"
        }
      ],
      "stateMutability": "view",
      "type": "function"
    },
    {
      "inputs": [
        {
          "internalType": "uint256",
          "name": "tokenId",
          "type": "uint256"
        }
      ],
      "name": "tokenURI",
      "outputs": [
        {
          "internalType": "string",
          "name": "",
          "type": "string"
        }
      ],
      "stateMutability": "view",
      "type": "function"
    },
    {
      "inputs": [
        {
          "internalType": "uint256",
          "name": "tokenId",
          "type": "uint256"
        }
      ],
      "name": "train",
      "outputs": [],
      "stateMutability": "nonpayable",
      "type": "function"
    },
    {
      "inputs": [
        {
          "internalType": "address",
          "name": "from",
          "type": "address"
        },
        {
          "internalType": "address",
          "name": "to",
          "type": "address"
        },
        {
          "internalType": "uint256",
          "name": "tokenId",
          "type": "uint256"
        }
      ],
      "name": "transferFrom",
      "outputs": [],
      "stateMutability": "nonpayable",
      "type": "function"
    }
  ],
  "bytecode": "0x60806040523480156200001157600080fd5b506040518060400160405280600d81526020017f436861696e20426174746c6573000000000000000000000000000000000000008152506040518060400160405280600581526020017f4342544c53000000000000000000000000000000000000000000000000000000815250816000908051906020019062000096929190620000b8565b508060019080519060200190620000af929190620000b8565b505050620001cd565b828054620000c69062000197565b90600052602060002090601f016020900481019282620000ea576000855562000136565b82601f106200010557805160ff191683800117855562000136565b8280016001018555821562000136579182015b828111156200013557825182559160200191906001019062000118565b5b50905062000145919062000149565b5090565b5b80821115620001645760008160009055506001016200014a565b5090565b7f4e487b7100000000000000000000000000000000000000000000000000000000600052602260045260246000fd5b60006002820490506001821680620001b057607f821691505b60208210811415620001c757620001c662000168565b5b50919050565b6139bc80620001dd6000396000f3fe608060405234801561001057600080fd5b50600436106101735760003560e01c80636352211e116100de578063b3af030b11610097578063c6a4342f11610071578063c6a4342f146104a6578063c87b56dd146104d6578063e985e9c514610506578063f43785f91461053657610173565b8063b3af030b1461042a578063b77df9ef1461045a578063b88d4fde1461048a57610173565b80636352211e1461033057806370a082311461036057806372f20fa61461039057806395d89b41146103c05780639625550b146103de578063a22cb4651461040e57610173565b806323b872dd1161013057806323b872dd1461024c57806326a6cc1814610268578063368004ed146102985780633bb3a24d146102b45780633e173e0f146102e457806342842e0e1461031457610173565b806301ffc9a71461017857806306fdde03146101a8578063081812fc146101c6578063095ea7b3146101f65780630daefed5146102125780631249c58b14610242575b600080fd5b610192600480360381019061018d9190612059565b610566565b60405161019f91906120a1565b60405180910390f35b6101b0610648565b6040516101bd9190612155565b60405180910390f35b6101e060048036038101906101db91906121ad565b6106da565b6040516101ed919061221b565b60405180910390f35b610210600480360381019061020b9190612262565b610720565b005b61022c600480360381019061022791906121ad565b610838565b6040516102399190612155565b60405180910390f35b61024a6108b4565b005b610266600480360381019061026191906122a2565b61094f565b005b610282600480360381019061027d91906121ad565b6109af565b60405161028f9190612304565b60405180910390f35b6102b260048036038101906102ad91906121ad565b6109c7565b005b6102ce60048036038101906102c991906121ad565b610b19565b6040516102db9190612155565b60405180910390f35b6102fe60048036038101906102f991906121ad565b610b81565b60405161030b9190612304565b60405180910390f35b61032e600480360381019061032991906122a2565b610b99565b005b61034a600480360381019061034591906121ad565b610bb9565b604051610357919061221b565b60405180910390f35b61037a6004803603810190610375919061231f565b610c6b565b6040516103879190612304565b60405180910390f35b6103aa60048036038101906103a591906121ad565b610d23565b6040516103b79190612155565b60405180910390f35b6103c8610d4e565b6040516103d59190612155565b60405180910390f35b6103f860048036038101906103f391906121ad565b610de0565b6040516104059190612155565b60405180910390f35b61042860048036038101906104239190612378565b610e0b565b005b610444600480360381019061043f91906121ad565b610e21565b6040516104519190612155565b60405180910390f35b610474600480360381019061046f91906121ad565b610e4c565b6040516104819190612304565b60405180910390f35b6104a4600480360381019061049f91906124ed565b610e64565b005b6104c060048036038101906104bb91906121ad565b610ec6565b6040516104cd9190612304565b60405180910390f35b6104f060048036038101906104eb91906121ad565b610ede565b6040516104fd9190612155565b60405180910390f35b610520600480360381019061051b9190612570565b610ff1565b60405161052d91906120a1565b60405180910390f35b610550600480360381019061054b91906121ad565b611085565b60405161055d9190612155565b60405180910390f35b60007f80ac58cd000000000000000000000000000000000000000000000000000000007bffffffffffffffffffffffffffffffffffffffffffffffffffffffff1916827bffffffffffffffffffffffffffffffffffffffffffffffffffffffff1916148061063157507f5b5e139f000000000000000000000000000000000000000000000000000000007bffffffffffffffffffffffffffffffffffffffffffffffffffffffff1916827bffffffffffffffffffffffffffffffffffffffffffffffffffffffff1916145b806106415750610640826110b0565b5b9050919050565b606060008054610657906125df565b80601f0160208091040260200160405190810160405280929190818152602001828054610683906125df565b80156106d05780601f106106a5576101008083540402835291602001916106d0565b820191906000526020600020905b8154815290600101906020018083116106b357829003601f168201915b5050505050905090565b60006106e58261111a565b6004600083815260200190815260200160002060009054906101000a900473ffffffffffffffffffffffffffffffffffffffff169050919050565b600061072b82610bb9565b90508073ffffffffffffffffffffffffffffffffffffffff168373ffffffffffffffffffffffffffffffffffffffff16141561079c576040517f08c379a000000000000000000000000000000000000000000000000000000000815260040161079390612683565b60405180910390fd5b8073ffffffffffffffffffffffffffffffffffffffff166107bb611165565b73ffffffffffffffffffffffffffffffffffffffff1614806107ea57506107e9816107e4611165565b610ff1565b5b610829576040517f08c379a000000000000000000000000000000000000000000000000000000000815260040161082090612715565b60405180910390fd5b610833838361116d565b505050565b6060600061084583611085565b61084e84610de0565b61085785610e21565b61086086610d23565b6040516020016108739493929190612b99565b604051602081830303815290604052905061088d81611226565b60405160200161089d9190612cf4565b604051602081830303815290604052915050919050565b6108be600761138a565b60006108ca60076113a0565b90506108d633826113ae565b60006008600083815260200190815260200160002081905550600060096000838152602001908152602001600020819055506000600a6000838152602001908152602001600020819055506000600b60008381526020019081526020016000208190555061094c8161094783610b19565b6113cc565b50565b61096061095a611165565b82611440565b61099f576040517f08c379a000000000000000000000000000000000000000000000000000000000815260040161099690612d88565b60405180910390fd5b6109aa8383836114d5565b505050565b60096020528060005260406000206000915090505481565b6109d08161173c565b610a0f576040517f08c379a0000000000000000000000000000000000000000000000000000000008152600401610a0690612df4565b60405180910390fd5b610a193382611440565b610a58576040517f08c379a0000000000000000000000000000000000000000000000000000000008152600401610a4f90612e60565b60405180910390fd5b6001600860008381526020019081526020016000206000828254610a7c9190612eaf565b925050819055506001600960008381526020019081526020016000206000828254610aa79190612eaf565b925050819055506001600a60008381526020019081526020016000206000828254610ad29190612eaf565b925050819055506001600b60008381526020019081526020016000206000828254610afd9190612eaf565b92505081905550610b1681610b1183610b19565b6113cc565b50565b60606000610b26836117a8565b610b2f84610838565b604051602001610b4092919061313f565b6040516020818303038152906040529050610b5a81611226565b604051602001610b6a91906131fc565b604051602081830303815290604052915050919050565b600a6020528060005260406000206000915090505481565b610bb483838360405180602001604052806000815250610e64565b505050565b6000806002600084815260200190815260200160002060009054906101000a900473ffffffffffffffffffffffffffffffffffffffff169050600073ffffffffffffffffffffffffffffffffffffffff168173ffffffffffffffffffffffffffffffffffffffff161415610c62576040517f08c379a0000000000000000000000000000000000000000000000000000000008152600401610c599061326a565b60405180910390fd5b80915050919050565b60008073ffffffffffffffffffffffffffffffffffffffff168273ffffffffffffffffffffffffffffffffffffffff161415610cdc576040517f08c379a0000000000000000000000000000000000000000000000000000000008152600401610cd3906132fc565b60405180910390fd5b600360008373ffffffffffffffffffffffffffffffffffffffff1673ffffffffffffffffffffffffffffffffffffffff168152602001908152602001600020549050919050565b60606000600b6000848152602001908152602001600020549050610d46816117a8565b915050919050565b606060018054610d5d906125df565b80601f0160208091040260200160405190810160405280929190818152602001828054610d89906125df565b8015610dd65780601f10610dab57610100808354040283529160200191610dd6565b820191906000526020600020905b815481529060010190602001808311610db957829003601f168201915b5050505050905090565b6060600060096000848152602001908152602001600020549050610e03816117a8565b915050919050565b610e1d610e16611165565b8383611909565b5050565b60606000600a6000848152602001908152602001600020549050610e44816117a8565b915050919050565b600b6020528060005260406000206000915090505481565b610e75610e6f611165565b83611440565b610eb4576040517f08c379a0000000000000000000000000000000000000000000000000000000008152600401610eab90612d88565b60405180910390fd5b610ec084848484611a76565b50505050565b60086020528060005260406000206000915090505481565b6060610ee98261111a565b6000600660008481526020019081526020016000208054610f09906125df565b80601f0160208091040260200160405190810160405280929190818152602001828054610f35906125df565b8015610f825780601f10610f5757610100808354040283529160200191610f82565b820191906000526020600020905b815481529060010190602001808311610f6557829003601f168201915b505050505090506000610f93611ad2565b9050600081511415610fa9578192505050610fec565b600082511115610fde578082604051602001610fc692919061331c565b60405160208183030381529060405292505050610fec565b610fe784611ae9565b925050505b919050565b6000600560008473ffffffffffffffffffffffffffffffffffffffff1673ffffffffffffffffffffffffffffffffffffffff16815260200190815260200160002060008373ffffffffffffffffffffffffffffffffffffffff1673ffffffffffffffffffffffffffffffffffffffff16815260200190815260200160002060009054906101000a900460ff16905092915050565b60606000600860008481526020019081526020016000205490506110a8816117a8565b915050919050565b60007f01ffc9a7000000000000000000000000000000000000000000000000000000007bffffffffffffffffffffffffffffffffffffffffffffffffffffffff1916827bffffffffffffffffffffffffffffffffffffffffffffffffffffffff1916149050919050565b6111238161173c565b611162576040517f08c379a00000000000000000000000000000000000000000000000000000000081526004016111599061326a565b60405180910390fd5b50565b600033905090565b816004600083815260200190815260200160002060006101000a81548173ffffffffffffffffffffffffffffffffffffffff021916908373ffffffffffffffffffffffffffffffffffffffff160217905550808273ffffffffffffffffffffffffffffffffffffffff166111e083610bb9565b73ffffffffffffffffffffffffffffffffffffffff167f8c5be1e5ebec7d5bd14f71427d1e84f3dd0314c0f7b2291e5b200ac8c7c3b92560405160405180910390a45050565b606060008251141561124957604051806020016040528060008152509050611385565b600060405180606001604052806040815260200161394760409139905060006003600285516112789190612eaf565b611282919061336f565b600461128e91906133a0565b67ffffffffffffffff8111156112a7576112a66123c2565b5b6040519080825280601f01601f1916602001820160405280156112d95781602001600182028036833780820191505090505b509050600182016020820185865187015b80821015611345576003820191508151603f8160121c168501518453600184019350603f81600c1c168501518453600184019350603f8160061c168501518453600184019350603f81168501518453600184019350506112ea565b505060038651066001811461136157600281146113745761137c565b603d6001830353603d600283035361137c565b603d60018303535b50505080925050505b919050565b6001816000016000828254019250508190555050565b600081600001549050919050565b6113c8828260405180602001604052806000815250611b51565b5050565b6113d58261173c565b611414576040517f08c379a000000000000000000000000000000000000000000000000000000000815260040161140b9061346c565b60405180910390fd5b8060066000848152602001908152602001600020908051906020019061143b929190611f4a565b505050565b60008061144c83610bb9565b90508073ffffffffffffffffffffffffffffffffffffffff168473ffffffffffffffffffffffffffffffffffffffff16148061148e575061148d8185610ff1565b5b806114cc57508373ffffffffffffffffffffffffffffffffffffffff166114b4846106da565b73ffffffffffffffffffffffffffffffffffffffff16145b91505092915050565b8273ffffffffffffffffffffffffffffffffffffffff166114f582610bb9565b73ffffffffffffffffffffffffffffffffffffffff161461154b576040517f08c379a0000000000000000000000000000000000000000000000000000000008152600401611542906134fe565b60405180910390fd5b600073ffffffffffffffffffffffffffffffffffffffff168273ffffffffffffffffffffffffffffffffffffffff1614156115bb576040517f08c379a00000000000000000000000000000000000000000000000000000000081526004016115b290613590565b60405180910390fd5b6115c6838383611bac565b6115d160008261116d565b6001600360008573ffffffffffffffffffffffffffffffffffffffff1673ffffffffffffffffffffffffffffffffffffffff168152602001908152602001600020600082825461162191906135b0565b925050819055506001600360008473ffffffffffffffffffffffffffffffffffffffff1673ffffffffffffffffffffffffffffffffffffffff16815260200190815260200160002060008282546116789190612eaf565b92505081905550816002600083815260200190815260200160002060006101000a81548173ffffffffffffffffffffffffffffffffffffffff021916908373ffffffffffffffffffffffffffffffffffffffff160217905550808273ffffffffffffffffffffffffffffffffffffffff168473ffffffffffffffffffffffffffffffffffffffff167fddf252ad1be2c89b69c2b068fc378daa952ba7f163c4a11628f55a4df523b3ef60405160405180910390a4611737838383611bb1565b505050565b60008073ffffffffffffffffffffffffffffffffffffffff166002600084815260200190815260200160002060009054906101000a900473ffffffffffffffffffffffffffffffffffffffff1673ffffffffffffffffffffffffffffffffffffffff1614159050919050565b606060008214156117f0576040518060400160405280600181526020017f30000000000000000000000000000000000000000000000000000000000000008152509050611904565b600082905060005b6000821461182257808061180b906135e4565b915050600a8261181b919061336f565b91506117f8565b60008167ffffffffffffffff81111561183e5761183d6123c2565b5b6040519080825280601f01601f1916602001820160405280156118705781602001600182028036833780820191505090505b5090505b600085146118fd5760018261188991906135b0565b9150600a85611898919061362d565b60306118a49190612eaf565b60f81b8183815181106118ba576118b961365e565b5b60200101907effffffffffffffffffffffffffffffffffffffffffffffffffffffffffffff1916908160001a905350600a856118f6919061336f565b9450611874565b8093505050505b919050565b8173ffffffffffffffffffffffffffffffffffffffff168373ffffffffffffffffffffffffffffffffffffffff161415611978576040517f08c379a000000000000000000000000000000000000000000000000000000000815260040161196f906136d9565b60405180910390fd5b80600560008573ffffffffffffffffffffffffffffffffffffffff1673ffffffffffffffffffffffffffffffffffffffff16815260200190815260200160002060008473ffffffffffffffffffffffffffffffffffffffff1673ffffffffffffffffffffffffffffffffffffffff16815260200190815260200160002060006101000a81548160ff0219169083151502179055508173ffffffffffffffffffffffffffffffffffffffff168373ffffffffffffffffffffffffffffffffffffffff167f17307eab39ab6107e8899845ad3d59bd9653f200f220920489ca2b5937696c3183604051611a6991906120a1565b60405180910390a3505050565b611a818484846114d5565b611a8d84848484611bb6565b611acc576040517f08c379a0000000000000000000000000000000000000000000000000000000008152600401611ac39061376b565b60405180910390fd5b50505050565b606060405180602001604052806000815250905090565b6060611af48261111a565b6000611afe611ad2565b90506000815111611b1e5760405180602001604052806000815250611b49565b80611b28846117a8565b604051602001611b3992919061331c565b6040516020818303038152906040525b915050919050565b611b5b8383611d4d565b611b686000848484611bb6565b611ba7576040517f08c379a0000000000000000000000000000000000000000000000000000000008152600401611b9e9061376b565b60405180910390fd5b505050565b505050565b505050565b6000611bd78473ffffffffffffffffffffffffffffffffffffffff16611f27565b15611d40578373ffffffffffffffffffffffffffffffffffffffff1663150b7a02611c00611165565b8786866040518563ffffffff1660e01b8152600401611c2294939291906137e0565b602060405180830381600087803b158015611c3c57600080fd5b505af1925050508015611c6d57506040513d601f19601f82011682018060405250810190611c6a9190613841565b60015b611cf0573d8060008114611c9d576040519150601f19603f3d011682016040523d82523d6000602084013e611ca2565b606091505b50600081511415611ce8576040517f08c379a0000000000000000000000000000000000000000000000000000000008152600401611cdf9061376b565b60405180910390fd5b805181602001fd5b63150b7a0260e01b7bffffffffffffffffffffffffffffffffffffffffffffffffffffffff1916817bffffffffffffffffffffffffffffffffffffffffffffffffffffffff191614915050611d45565b600190505b949350505050565b600073ffffffffffffffffffffffffffffffffffffffff168273ffffffffffffffffffffffffffffffffffffffff161415611dbd576040517f08c379a0000000000000000000000000000000000000000000000000000000008152600401611db4906138ba565b60405180910390fd5b611dc68161173c565b15611e06576040517f08c379a0000000000000000000000000000000000000000000000000000000008152600401611dfd90613926565b60405180910390fd5b611e1260008383611bac565b6001600360008473ffffffffffffffffffffffffffffffffffffffff1673ffffffffffffffffffffffffffffffffffffffff1681526020019081526020016000206000828254611e629190612eaf565b92505081905550816002600083815260200190815260200160002060006101000a81548173ffffffffffffffffffffffffffffffffffffffff021916908373ffffffffffffffffffffffffffffffffffffffff160217905550808273ffffffffffffffffffffffffffffffffffffffff16600073ffffffffffffffffffffffffffffffffffffffff167fddf252ad1be2c89b69c2b068fc378daa952ba7f163c4a11628f55a4df523b3ef60405160405180910390a4611f2360008383611bb1565b5050565b6000808273ffffffffffffffffffffffffffffffffffffffff163b119050919050565b828054611f56906125df565b90600052602060002090601f016020900481019282611f785760008555611fbf565b82601f10611f9157805160ff1916838001178555611fbf565b82800160010185558215611fbf579182015b82811115611fbe578251825591602001919060010190611fa3565b5b509050611fcc9190611fd0565b5090565b5b80821115611fe9576000816000905550600101611fd1565b5090565b6000604051905090565b600080fd5b600080fd5b60007fffffffff0000000000000000000000000000000000000000000000000000000082169050919050565b61203681612001565b811461204157600080fd5b50565b6000813590506120538161202d565b92915050565b60006020828403121561206f5761206e611ff7565b5b600061207d84828501612044565b91505092915050565b60008115159050919050565b61209b81612086565b82525050565b60006020820190506120b66000830184612092565b92915050565b600081519050919050565b600082825260208201905092915050565b60005b838110156120f65780820151818401526020810190506120db565b83811115612105576000848401525b50505050565b6000601f19601f8301169050919050565b6000612127826120bc565b61213181856120c7565b93506121418185602086016120d8565b61214a8161210b565b840191505092915050565b6000602082019050818103600083015261216f818461211c565b905092915050565b6000819050919050565b61218a81612177565b811461219557600080fd5b50565b6000813590506121a781612181565b92915050565b6000602082840312156121c3576121c2611ff7565b5b60006121d184828501612198565b91505092915050565b600073ffffffffffffffffffffffffffffffffffffffff82169050919050565b6000612205826121da565b9050919050565b612215816121fa565b82525050565b6000602082019050612230600083018461220c565b92915050565b61223f816121fa565b811461224a57600080fd5b50565b60008135905061225c81612236565b92915050565b6000806040838503121561227957612278611ff7565b5b60006122878582860161224d565b925050602061229885828601612198565b9150509250929050565b6000806000606084860312156122bb576122ba611ff7565b5b60006122c98682870161224d565b93505060206122da8682870161224d565b92505060406122eb86828701612198565b9150509250925092565b6122fe81612177565b82525050565b600060208201905061231960008301846122f5565b92915050565b60006020828403121561233557612334611ff7565b5b60006123438482850161224d565b91505092915050565b61235581612086565b811461236057600080fd5b50565b6000813590506123728161234c565b92915050565b6000806040838503121561238f5761238e611ff7565b5b600061239d8582860161224d565b92505060206123ae85828601612363565b9150509250929050565b600080fd5b600080fd5b7f4e487b7100000000000000000000000000000000000000000000000000000000600052604160045260246000fd5b6123fa8261210b565b810181811067ffffffffffffffff82111715612419576124186123c2565b5b80604052505050565b600061242c611fed565b905061243882826123f1565b919050565b600067ffffffffffffffff821115612458576124576123c2565b5b6124618261210b565b9050602081019050919050565b82818337600083830152505050565b600061249061248b8461243d565b612422565b9050828152602081018484840111156124ac576124ab6123bd565b5b6124b784828561246e565b509392505050565b600082601f8301126124d4576124d36123b8565b5b81356124e484826020860161247d565b91505092915050565b6000806000806080858703121561250757612506611ff7565b5b60006125158782880161224d565b94505060206125268782880161224d565b935050604061253787828801612198565b925050606085013567ffffffffffffffff81111561255857612557611ffc565b5b612564878288016124bf565b91505092959194509250565b6000806040838503121561258757612586611ff7565b5b60006125958582860161224d565b92505060206125a68582860161224d565b9150509250929050565b7f4e487b7100000000000000000000000000000000000000000000000000000000600052602260045260246000fd5b600060028204905060018216806125f757607f821691505b6020821081141561260b5761260a6125b0565b5b50919050565b7f4552433732313a20617070726f76616c20746f2063757272656e74206f776e6560008201527f7200000000000000000000000000000000000000000000000000000000000000602082015250565b600061266d6021836120c7565b915061267882612611565b604082019050919050565b6000602082019050818103600083015261269c81612660565b9050919050565b7f4552433732313a20617070726f76652063616c6c6572206973206e6f7420746f60008201527f6b656e206f776e6572206e6f7220617070726f76656420666f7220616c6c0000602082015250565b60006126ff603e836120c7565b915061270a826126a3565b604082019050919050565b6000602082019050818103600083015261272e816126f2565b9050919050565b600081905092915050565b7f3c73766720786d6c6e733d22687474703a2f2f7777772e77332e6f72672f323060008201527f30302f73766722207072657365727665417370656374526174696f3d22784d6960208201527f6e594d696e206d656574222076696577426f783d22302030203335302033353060408201527f223e000000000000000000000000000000000000000000000000000000000000606082015250565b60006127e8606283612735565b91506127f382612740565b606282019050919050565b7f3c7374796c653e2e62617365207b2066696c6c3a2077686974653b20666f6e7460008201527f2d66616d696c793a2073657269663b20666f6e742d73697a653a20313470783b60208201527f207d3c2f7374796c653e00000000000000000000000000000000000000000000604082015250565b6000612880604a83612735565b915061288b826127fe565b604a82019050919050565b7f3c726563742077696474683d223130302522206865696768743d22313030252260008201527f2066696c6c3d22626c61636b22202f3e00000000000000000000000000000000602082015250565b60006128f2603083612735565b91506128fd82612896565b603082019050919050565b7f3c7465787420783d223530252220793d223430252220636c6173733d2262617360008201527f652220646f6d696e616e742d626173656c696e653d226d6964646c652220746560208201527f78742d616e63686f723d226d6964646c65223e00000000000000000000000000604082015250565b600061298a605383612735565b915061299582612908565b605382019050919050565b7f57617272696f7200000000000000000000000000000000000000000000000000600082015250565b60006129d6600783612735565b91506129e1826129a0565b600782019050919050565b7f3c2f746578743e00000000000000000000000000000000000000000000000000600082015250565b6000612a22600783612735565b9150612a2d826129ec565b600782019050919050565b7f3c7465787420783d223530252220793d223530252220636c6173733d2262617360008201527f652220646f6d696e616e742d626173656c696e653d226d6964646c652220746560208201527f78742d616e63686f723d226d6964646c65223e00000000000000000000000000604082015250565b6000612aba605383612735565b9150612ac582612a38565b605382019050919050565b7f4c6576656c733a20000000000000000000000000000000000000000000000000600082015250565b6000612b06600883612735565b9150612b1182612ad0565b600882019050919050565b6000612b27826120bc565b612b318185612735565b9350612b418185602086016120d8565b80840191505092915050565b7f3c2f7376673e0000000000000000000000000000000000000000000000000000600082015250565b6000612b83600683612735565b9150612b8e82612b4d565b600682019050919050565b6000612ba4826127db565b9150612baf82612873565b9150612bba826128e5565b9150612bc58261297d565b9150612bd0826129c9565b9150612bdb82612a15565b9150612be682612aad565b9150612bf182612af9565b9150612bfd8287612b1c565b9150612c0882612a15565b9150612c1382612aad565b9150612c1e82612af9565b9150612c2a8286612b1c565b9150612c3582612a15565b9150612c4082612aad565b9150612c4b82612af9565b9150612c578285612b1c565b9150612c6282612a15565b9150612c6d82612aad565b9150612c7882612af9565b9150612c848284612b1c565b9150612c8f82612a15565b9150612c9a82612b76565b915081905095945050505050565b7f646174613a696d6167652f7376672b786d6c3b6261736536342c000000000000600082015250565b6000612cde601a83612735565b9150612ce982612ca8565b601a82019050919050565b6000612cff82612cd1565b9150612d0b8284612b1c565b915081905092915050565b7f4552433732313a2063616c6c6572206973206e6f7420746f6b656e206f776e6560008201527f72206e6f7220617070726f766564000000000000000000000000000000000000602082015250565b6000612d72602e836120c7565b9150612d7d82612d16565b604082019050919050565b60006020820190508181036000830152612da181612d65565b9050919050565b7f54686520746f6b656e496420646f6573206e6f74206578697374000000000000600082015250565b6000612dde601a836120c7565b9150612de982612da8565b602082019050919050565b60006020820190508181036000830152612e0d81612dd1565b9050919050565b7f596f7520617265206e6f7420746865206f776e6572206f6620746865204e4654600082015250565b6000612e4a6020836120c7565b9150612e5582612e14565b602082019050919050565b60006020820190508181036000830152612e7981612e3d565b9050919050565b7f4e487b7100000000000000000000000000000000000000000000000000000000600052601160045260246000fd5b6000612eba82612177565b9150612ec583612177565b9250827fffffffffffffffffffffffffffffffffffffffffffffffffffffffffffffffff03821115612efa57612ef9612e80565b5b828201905092915050565b7f7b00000000000000000000000000000000000000000000000000000000000000600082015250565b6000612f3b600183612735565b9150612f4682612f05565b600182019050919050565b7f226e616d65223a2022436861696e20426174746c657320230000000000000000600082015250565b6000612f87601883612735565b9150612f9282612f51565b601882019050919050565b7f222c000000000000000000000000000000000000000000000000000000000000600082015250565b6000612fd3600283612735565b9150612fde82612f9d565b600282019050919050565b7f226465736372697074696f6e223a2022426174746c6573206f6e20636861696e60008201527f222c000000000000000000000000000000000000000000000000000000000000602082015250565b6000613045602283612735565b915061305082612fe9565b602282019050919050565b7f22696d616765223a202200000000000000000000000000000000000000000000600082015250565b6000613091600a83612735565b915061309c8261305b565b600a82019050919050565b7f2200000000000000000000000000000000000000000000000000000000000000600082015250565b60006130dd600183612735565b91506130e8826130a7565b600182019050919050565b7f7d00000000000000000000000000000000000000000000000000000000000000600082015250565b6000613129600183612735565b9150613134826130f3565b600182019050919050565b600061314a82612f2e565b915061315582612f7a565b91506131618285612b1c565b915061316c82612fc6565b915061317782613038565b915061318282613084565b915061318e8284612b1c565b9150613199826130d0565b91506131a48261311c565b91508190509392505050565b7f646174613a6170706c69636174696f6e2f6a736f6e3b6261736536342c000000600082015250565b60006131e6601d83612735565b91506131f1826131b0565b601d82019050919050565b6000613207826131d9565b91506132138284612b1c565b915081905092915050565b7f4552433732313a20696e76616c696420746f6b656e2049440000000000000000600082015250565b60006132546018836120c7565b915061325f8261321e565b602082019050919050565b6000602082019050818103600083015261328381613247565b9050919050565b7f4552433732313a2061646472657373207a65726f206973206e6f74206120766160008201527f6c6964206f776e65720000000000000000000000000000000000000000000000602082015250565b60006132e66029836120c7565b91506132f18261328a565b604082019050919050565b60006020820190508181036000830152613315816132d9565b9050919050565b60006133288285612b1c565b91506133348284612b1c565b91508190509392505050565b7f4e487b7100000000000000000000000000000000000000000000000000000000600052601260045260246000fd5b600061337a82612177565b915061338583612177565b92508261339557613394613340565b5b828204905092915050565b60006133ab82612177565b91506133b683612177565b9250817fffffffffffffffffffffffffffffffffffffffffffffffffffffffffffffffff04831182151516156133ef576133ee612e80565b5b828202905092915050565b7f45524337323155524953746f726167653a2055524920736574206f66206e6f6e60008201527f6578697374656e7420746f6b656e000000000000000000000000000000000000602082015250565b6000613456602e836120c7565b9150613461826133fa565b604082019050919050565b6000602082019050818103600083015261348581613449565b9050919050565b7f4552433732313a207472616e736665722066726f6d20696e636f72726563742060008201527f6f776e6572000000000000000000000000000000000000000000000000000000602082015250565b60006134e86025836120c7565b91506134f38261348c565b604082019050919050565b60006020820190508181036000830152613517816134db565b9050919050565b7f4552433732313a207472616e7366657220746f20746865207a65726f2061646460008201527f7265737300000000000000000000000000000000000000000000000000000000602082015250565b600061357a6024836120c7565b91506135858261351e565b604082019050919050565b600060208201905081810360008301526135a98161356d565b9050919050565b60006135bb82612177565b91506135c683612177565b9250828210156135d9576135d8612e80565b5b828203905092915050565b60006135ef82612177565b91507fffffffffffffffffffffffffffffffffffffffffffffffffffffffffffffffff82141561362257613621612e80565b5b600182019050919050565b600061363882612177565b915061364383612177565b92508261365357613652613340565b5b828206905092915050565b7f4e487b7100000000000000000000000000000000000000000000000000000000600052603260045260246000fd5b7f4552433732313a20617070726f766520746f2063616c6c657200000000000000600082015250565b60006136c36019836120c7565b91506136ce8261368d565b602082019050919050565b600060208201905081810360008301526136f2816136b6565b9050919050565b7f4552433732313a207472616e7366657220746f206e6f6e20455243373231526560008201527f63656976657220696d706c656d656e7465720000000000000000000000000000602082015250565b60006137556032836120c7565b9150613760826136f9565b604082019050919050565b6000602082019050818103600083015261378481613748565b9050919050565b600081519050919050565b600082825260208201905092915050565b60006137b28261378b565b6137bc8185613796565b93506137cc8185602086016120d8565b6137d58161210b565b840191505092915050565b60006080820190506137f5600083018761220c565b613802602083018661220c565b61380f60408301856122f5565b818103606083015261382181846137a7565b905095945050505050565b60008151905061383b8161202d565b92915050565b60006020828403121561385757613856611ff7565b5b60006138658482850161382c565b91505092915050565b7f4552433732313a206d696e7420746f20746865207a65726f2061646472657373600082015250565b60006138a46020836120c7565b91506138af8261386e565b602082019050919050565b600060208201905081810360008301526138d381613897565b9050919050565b7f4552433732313a20746f6b656e20616c7265616479206d696e74656400000000600082015250565b6000613910601c836120c7565b915061391b826138da565b602082019050919050565b6000602082019050818103600083015261393f81613903565b905091905056fe4142434445464748494a4b4c4d4e4f505152535455565758595a6162636465666768696a6b6c6d6e6f707172737475767778797a303132333435363738392b2fa264697066735822122027c1dfd6b6f8290add7e54e0bc545fc02b9b2d2f383695e675cdc4020fa1ef0d64736f6c63430008090033",
  "linkReferences": {},
  "deployedLinkReferences": {}
}